{
  "_format": "hh-sol-artifact-1",
  "contractName": "Receiver",
  "sourceName": "contracts/src/SwitchboardPushReceiver/Receiver/Receiver.sol",
  "abi": [
    {
      "inputs": [
        {
          "internalType": "address",
          "name": "feedId",
          "type": "address"
        }
      ],
      "name": "FeedUninitialized",
      "type": "error"
    },
    {
      "inputs": [],
      "name": "IncorrectInputLength",
      "type": "error"
    },
    {
      "inputs": [
        {
          "internalType": "address",
          "name": "expected",
          "type": "address"
        },
        {
          "internalType": "address",
          "name": "received",
          "type": "address"
        }
      ],
      "name": "InvalidSender",
      "type": "error"
    },
    {
      "inputs": [
        {
          "internalType": "bytes32[]",
          "name": "_feedNames",
          "type": "bytes32[]"
        },
        {
          "internalType": "int256[]",
          "name": "values",
          "type": "int256[]"
        },
        {
          "internalType": "uint256",
          "name": "timestamp",
          "type": "uint256"
        }
      ],
      "name": "callback",
      "outputs": [],
      "stateMutability": "nonpayable",
      "type": "function"
    },
    {
      "inputs": [
        {
          "internalType": "address",
          "name": "feedId",
          "type": "address"
        },
        {
          "internalType": "string",
          "name": "name",
          "type": "string"
        },
        {
          "internalType": "string",
          "name": "description",
          "type": "string"
        }
      ],
      "name": "deployFeedAdapter",
      "outputs": [],
      "stateMutability": "nonpayable",
      "type": "function"
    },
    {
      "inputs": [],
      "name": "feedNames",
      "outputs": [
        {
          "internalType": "bytes32[]",
          "name": "",
          "type": "bytes32[]"
        }
      ],
      "stateMutability": "view",
      "type": "function"
    },
    {
      "inputs": [
        {
          "internalType": "bytes32",
          "name": "feedName",
          "type": "bytes32"
        }
      ],
      "name": "feeds",
      "outputs": [
        {
          "components": [
            {
              "internalType": "address",
              "name": "feedId",
              "type": "address"
            },
            {
              "internalType": "bytes32",
              "name": "feedName",
              "type": "bytes32"
            },
            {
              "internalType": "uint80",
              "name": "latestIntervalId",
              "type": "uint80"
            },
            {
              "components": [
                {
                  "internalType": "int256",
                  "name": "value",
                  "type": "int256"
                },
                {
                  "internalType": "uint256",
                  "name": "startedAt",
                  "type": "uint256"
                },
                {
                  "internalType": "uint256",
                  "name": "updatedAt",
                  "type": "uint256"
                }
              ],
              "internalType": "struct ReceiverLib.Result",
              "name": "latestResult",
              "type": "tuple"
            },
            {
              "internalType": "bool",
              "name": "historyEnabled",
              "type": "bool"
            }
          ],
          "internalType": "struct ReceiverLib.Feed",
          "name": "",
          "type": "tuple"
        }
      ],
      "stateMutability": "view",
      "type": "function"
    },
    {
      "inputs": [],
      "name": "getAllFeeds",
      "outputs": [
        {
          "components": [
            {
              "internalType": "address",
              "name": "feedId",
              "type": "address"
            },
            {
              "internalType": "bytes32",
              "name": "feedName",
              "type": "bytes32"
            },
            {
              "internalType": "uint80",
              "name": "latestIntervalId",
              "type": "uint80"
            },
            {
              "components": [
                {
                  "internalType": "int256",
                  "name": "value",
                  "type": "int256"
                },
                {
                  "internalType": "uint256",
                  "name": "startedAt",
                  "type": "uint256"
                },
                {
                  "internalType": "uint256",
                  "name": "updatedAt",
                  "type": "uint256"
                }
              ],
              "internalType": "struct ReceiverLib.Result",
              "name": "latestResult",
              "type": "tuple"
            },
            {
              "internalType": "bool",
              "name": "historyEnabled",
              "type": "bool"
            }
          ],
          "internalType": "struct ReceiverLib.Feed[]",
          "name": "",
          "type": "tuple[]"
        }
      ],
      "stateMutability": "view",
      "type": "function"
    },
    {
      "inputs": [
        {
          "internalType": "address",
          "name": "feedId",
          "type": "address"
        }
      ],
      "name": "getLatestResult",
      "outputs": [
        {
          "internalType": "int256",
          "name": "value",
          "type": "int256"
        },
        {
          "internalType": "uint256",
          "name": "timestamp",
          "type": "uint256"
        },
        {
          "internalType": "uint256",
          "name": "updatedAt",
          "type": "uint256"
        },
        {
          "internalType": "uint80",
          "name": "intervalId",
          "type": "uint80"
        }
      ],
      "stateMutability": "nonpayable",
      "type": "function"
    },
    {
      "inputs": [
        {
          "internalType": "bytes32",
          "name": "feedName",
          "type": "bytes32"
        },
        {
          "internalType": "uint80",
          "name": "intervalId",
          "type": "uint80"
        }
      ],
      "name": "results",
      "outputs": [
        {
          "components": [
            {
              "internalType": "int256",
              "name": "value",
              "type": "int256"
            },
            {
              "internalType": "uint256",
              "name": "startedAt",
              "type": "uint256"
            },
            {
              "internalType": "uint256",
              "name": "updatedAt",
              "type": "uint256"
            }
          ],
          "internalType": "struct ReceiverLib.Result",
          "name": "",
          "type": "tuple"
        }
      ],
      "stateMutability": "view",
      "type": "function"
    }
  ],
  "bytecode": "0x608060405234801561001057600080fd5b50611d20806100206000396000f3fe60806040523480156200001157600080fd5b5060043610620000875760003560e01c8063a0df776a1162000062578063a0df776a1462000115578063dcc7c13d146200012e578063e90f1a431462000145578063f7307e7e146200016b57600080fd5b806312876798146200008c57806338946d2d14620000ae5780635823156d14620000ef575b600080fd5b6200009662000184565b604051620000a5919062000c86565b60405180910390f35b620000c5620000bf36600462000cf5565b62000195565b604080519485526020850193909352918301526001600160501b03166060820152608001620000a5565b620001066200010036600462000d1a565b620002e0565b604051620000a5919062000d58565b6200012c6200012636600462000e5e565b62000371565b005b6200012c6200013f36600462000fa3565b620003b0565b6200015c6200015636600462001020565b620004d4565b604051620000a591906200103a565b6200017562000582565b604051620000a591906200104a565b606062000190620005fb565b905090565b6000806000806000620001a88662000787565b60008181527f8271ca78dafdc4ec1467ce386d27760f7fc1832141ce320909354f6f0388256560209081526040808320815160a08101835281546001600160a01b0316815260018201548185015260028201546001600160501b039081168285019081528451606080820187526003860154825260048601549782019788526005860154968201968752840181905260069094015460ff16151560808401529251945193519251949b5092995090975091955092935091841690036200029157604051632a3a43f560e11b81526001600160a01b03881660048201526024015b60405180910390fd5b604080518781526020810187905233916001600160a01b038a16917f0e9d66d7dbe705285905a5666005fb8a05857bd743a38f604417afce390f7d4c910160405180910390a350509193509193565b6200030560405180606001604052806000815260200160008152602001600081525090565b60008381527f8271ca78dafdc4ec1467ce386d27760f7fc1832141ce320909354f6f03882564602090815260408083206001600160501b038616845290915290206040805160608101825282548152600183015460208201526002909201549082015290505b92915050565b6200037b620007b0565b81518351146200039e57604051637867cbd560e11b815260040160405180910390fd5b620003ab83838362000888565b505050565b6000620003bd8462000787565b90506000620003f37fec717508ea0d3d9f736b2da60dd18c1864c124710105fae8984f76b69eb3c826546001600160a01b031690565b85838686604051620004059062000bb7565b62000415959493929190620010cc565b604051809103906000f08015801562000432573d6000803e3d6000fd5b506001600160a01b038616600090815260008051602062001ccb833981519152602090815260408083205483527f8271ca78dafdc4ec1467ce386d27760f7fc1832141ce320909354f6f038825659091529020600601805460ff19166001179055905060405133906001600160a01b0383169084907f4bf31c1d9894311b78dfa03ee6d61f290cde849712cd75d88874ab7ba2f9727e90600090a45050505050565b620004de62000bc5565b5060009081527f8271ca78dafdc4ec1467ce386d27760f7fc1832141ce320909354f6f038825656020908152604091829020825160a08101845281546001600160a01b0316815260018201548184015260028201546001600160501b031681850152835160608082018652600384015482526004840154948201949094526005830154948101949094529182019290925260069091015460ff161515608082015290565b60607f8271ca78dafdc4ec1467ce386d27760f7fc1832141ce320909354f6f03882566805480602002602001604051908101604052809291908181526020018280548015620005f157602002820191906000526020600020905b815481526020019060010190808311620005dc575b5050505050905090565b7f8271ca78dafdc4ec1467ce386d27760f7fc1832141ce320909354f6f038825665460609060008051602062001ccb8339815191529060009067ffffffffffffffff8111156200064f576200064f62000d7a565b6040519080825280602002602001820160405280156200068c57816020015b6200067862000bc5565b8152602001906001900390816200066e5790505b50905060005b60038301548110156200078057826002016000846003018381548110620006bd57620006bd62001121565b600091825260208083209091015483528281019390935260409182019020815160a08101835281546001600160a01b0316815260018201548185015260028201546001600160501b03168184015282516060818101855260038401548252600484015495820195909552600583015493810193909352928301919091526006015460ff161515608082015282518390839081106200075f576200075f62001121565b6020026020010181905250808062000777906200114d565b91505062000692565b5092915050565b6001600160a01b0316600090815260008051602062001ccb833981519152602052604090205490565b3360143610801590620007ef57507fec717508ea0d3d9f736b2da60dd18c1864c124710105fae8984f76b69eb3c826546001600160a01b038281169116145b1562000800575060131936013560601c5b7fec717508ea0d3d9f736b2da60dd18c1864c124710105fae8984f76b69eb3c827546001600160a01b0382811691161462000885577fec717508ea0d3d9f736b2da60dd18c1864c124710105fae8984f76b69eb3c8275460405163708986dd60e11b81526001600160a01b039182166004820152908216602482015260440162000288565b50565b60008051602062001ccb83398151915260005b845181101562000bb0576000826002016000878481518110620008c257620008c262001121565b6020026020010151815260200190815260200160002090508060020160009054906101000a90046001600160501b03166001600160501b0316600003620009cd5760008683815181106200091a576200091a62001121565b60200260200101516040516020016200093591815260200190565b6040516020818303038152906040528051906020012060001c905086838151811062000965576200096562001121565b6020908102919091018101516001600160a01b0383166000908152918690526040909120558651879084908110620009a157620009a162001121565b6020908102919091010151600183015581546001600160a01b0319166001600160a01b03919091161781555b600681015460ff161562000a78576040518060600160405280868481518110620009fb57620009fb62001121565b602002602001015181526020018581526020014281525083600101600088858151811062000a2d5762000a2d62001121565b602090810291909101810151825281810192909252604090810160009081206002808701546001600160501b0316835290845290829020845181559284015160018401559201519101555b6002810180546001600160501b031690600062000a958362001169565b91906101000a8154816001600160501b0302191690836001600160501b0316021790555050604051806060016040528086848151811062000ada5762000ada62001121565b60209081029190910181015182528181018790524260409283015282516003850155820151600484015501516005820155600281015486516001600160501b039091169087908490811062000b335762000b3362001121565b60200260200101517fae9ac3594cad937b3975db908e86765d93bdc566628fda5872c1ba5f33683c5087858151811062000b715762000b7162001121565b60200260200101518760405162000b92929190918252602082015260400190565b60405180910390a3508062000ba7816200114d565b9150506200089b565b5050505050565b610b38806200119383390190565b6040518060a0016040528060006001600160a01b031681526020016000801916815260200160006001600160501b0316815260200162000c1f60405180606001604052806000815260200160008152602001600081525090565b8152600060209091015290565b80516001600160a01b03168252602080820151818401526040808301516001600160501b03168185015260608084015180519186019190915291820151608085015281015160a08401525060800151151560c09190910152565b6020808252825182820181905260009190848201906040850190845b8181101562000ccc5762000cb883855162000c2c565b9284019260e0929092019160010162000ca2565b50909695505050505050565b80356001600160a01b038116811462000cf057600080fd5b919050565b60006020828403121562000d0857600080fd5b62000d138262000cd8565b9392505050565b6000806040838503121562000d2e57600080fd5b8235915060208301356001600160501b038116811462000d4d57600080fd5b809150509250929050565b815181526020808301519082015260408083015190820152606081016200036b565b634e487b7160e01b600052604160045260246000fd5b604051601f8201601f1916810167ffffffffffffffff8111828210171562000dbc5762000dbc62000d7a565b604052919050565b600067ffffffffffffffff82111562000de15762000de162000d7a565b5060051b60200190565b600082601f83011262000dfd57600080fd5b8135602062000e1662000e108362000dc4565b62000d90565b82815260059290921b8401810191818101908684111562000e3657600080fd5b8286015b8481101562000e53578035835291830191830162000e3a565b509695505050505050565b60008060006060848603121562000e7457600080fd5b833567ffffffffffffffff8082111562000e8d57600080fd5b818601915086601f83011262000ea257600080fd5b8135602062000eb562000e108362000dc4565b82815260059290921b8401810191818101908a84111562000ed557600080fd5b948201945b8386101562000ef55785358252948201949082019062000eda565b9750508701359250508082111562000f0c57600080fd5b5062000f1b8682870162000deb565b925050604084013590509250925092565b600082601f83011262000f3e57600080fd5b813567ffffffffffffffff81111562000f5b5762000f5b62000d7a565b62000f70601f8201601f191660200162000d90565b81815284602083860101111562000f8657600080fd5b816020850160208301376000918101602001919091529392505050565b60008060006060848603121562000fb957600080fd5b62000fc48462000cd8565b9250602084013567ffffffffffffffff8082111562000fe257600080fd5b62000ff08783880162000f2c565b935060408601359150808211156200100757600080fd5b50620010168682870162000f2c565b9150509250925092565b6000602082840312156200103357600080fd5b5035919050565b60e081016200036b828462000c2c565b6020808252825182820181905260009190848201906040850190845b8181101562000ccc5783518352928401929184019160010162001066565b6000815180845260005b81811015620010ac576020818501810151868301820152016200108e565b506000602082860101526020601f19601f83011685010191505092915050565b6001600160a01b038681168252851660208201526040810184905260a060608201819052600090620011019083018562001084565b828103608084015262001115818562001084565b98975050505050505050565b634e487b7160e01b600052603260045260246000fd5b634e487b7160e01b600052601160045260246000fd5b60006001820162001162576200116262001137565b5060010190565b60006001600160501b0380831681810362001188576200118862001137565b600101939250505056fe60806040523480156200001157600080fd5b5060405162000b3838038062000b38833981016040819052620000349162000174565b600080546001600160a01b038088166001600160a01b0319928316179092556001805492871692909116919091179055600283905560036200007783826200029d565b5060046200008682826200029d565b50505050505062000369565b80516001600160a01b0381168114620000aa57600080fd5b919050565b634e487b7160e01b600052604160045260246000fd5b600082601f830112620000d757600080fd5b81516001600160401b0380821115620000f457620000f4620000af565b604051601f8301601f19908116603f011681019082821181831017156200011f576200011f620000af565b816040528381526020925086838588010111156200013c57600080fd5b600091505b8382101562000160578582018301518183018401529082019062000141565b600093810190920192909252949350505050565b600080600080600060a086880312156200018d57600080fd5b620001988662000092565b9450620001a86020870162000092565b6040870151606088015191955093506001600160401b0380821115620001cd57600080fd5b620001db89838a01620000c5565b93506080880151915080821115620001f257600080fd5b506200020188828901620000c5565b9150509295509295909350565b600181811c908216806200022357607f821691505b6020821081036200024457634e487b7160e01b600052602260045260246000fd5b50919050565b601f8211156200029857600081815260208120601f850160051c81016020861015620002735750805b601f850160051c820191505b8181101562000294578281556001016200027f565b5050505b505050565b81516001600160401b03811115620002b957620002b9620000af565b620002d181620002ca84546200020e565b846200024a565b602080601f831160018114620003095760008415620002f05750858301515b600019600386901b1c1916600185901b17855562000294565b600085815260208120601f198616915b828110156200033a5788860151825594840194600190910190840162000319565b5085821015620003595787850151600019600388901b60f8161c191681555b5050505050600190811b01905550565b6107bf80620003796000396000f3fe608060405234801561001057600080fd5b50600436106100a95760003560e01c806354fd4d501161007157806354fd4d50146101595780635c47d007146101605780635f9970e6146101735780637284e416146101865780639a6fc8f51461018e578063feaf968c146101a157600080fd5b806306fdde03146100ae578063313ce567146100cc57806335e8568f146100db5780633c528def146100f25780634a6434991461012e575b600080fd5b6100b66101a9565b6040516100c39190610584565b60405180910390f35b604051601281526020016100c3565b6100e460025481565b6040519081526020016100c3565b6100fa610237565b604080516001600160501b03968716815260208101959095528401929092526060830152909116608082015260a0016100c3565b600154610141906001600160a01b031681565b6040516001600160a01b0390911681526020016100c3565b60016100e4565b6100fa61016e3660046105ea565b6102d4565b600054610141906001600160a01b031681565b6100b661043f565b6100fa61019c3660046105ea565b61044c565b6100fa6104af565b600380546101b69061060e565b80601f01602080910402602001604051908101604052809291908181526020018280546101e29061060e565b801561022f5780601f106102045761010080835404028352916020019161022f565b820191906000526020600020905b81548152906001019060200180831161021257829003601f168201915b505050505081565b6000805460025460405163e90f1a4360e01b81526004810191909152829182918291829182916001600160a01b03169063e90f1a439060240160e060405180830381865afa15801561028d573d6000803e3d6000fd5b505050506040513d601f19601f820116820180604052508101906102b191906106c7565b606001518051602082015160409092015197989097919650909450879350915050565b6000805460025460405163e90f1a4360e01b81526004810191909152829182918291829182916001600160a01b03169063e90f1a439060240160e060405180830381865afa15801561032a573d6000803e3d6000fd5b505050506040513d601f19601f8201168201806040525081019061034e91906106c7565b905061037460405180606001604052806000815260200160008152602001600081525090565b81604001516001600160501b0316886001600160501b03160361039c5750606081015161041f565b600054600254604051635823156d60e01b815260048101919091526001600160501b038a1660248201526001600160a01b0390911690635823156d90604401606060405180830381865afa1580156103f8573d6000803e3d6000fd5b505050506040513d601f19601f8201168201806040525081019061041c919061076d565b90505b805160208201516040909201519899909891975090955088945092505050565b600480546101b69061060e565b600080600080600061045d866102d4565b93985091965094509250905060008290036104a6576002546040516304e51fed60e21b815260048101919091526001600160501b03861660248201526044015b60405180910390fd5b91939590929450565b6000805460025460405163e90f1a4360e01b815283928392839283926001600160a01b03169163e90f1a43916104ec919060040190815260200190565b60e060405180830381865afa158015610509573d6000803e3d6000fd5b505050506040513d601f19601f8201168201806040525081019061052d91906106c7565b604001519450846001600160501b031660000361056b576002546040516304e51fed60e21b815260048101919091526000602482015260440161049d565b610573610237565b945094509450945094509091929394565b600060208083528351808285015260005b818110156105b157858101830151858201604001528201610595565b506000604082860101526040601f19601f8301168501019250505092915050565b6001600160501b03811681146105e757600080fd5b50565b6000602082840312156105fc57600080fd5b8135610607816105d2565b9392505050565b600181811c9082168061062257607f821691505b60208210810361064257634e487b7160e01b600052602260045260246000fd5b50919050565b60006060828403121561065a57600080fd5b6040516060810181811067ffffffffffffffff8211171561068b57634e487b7160e01b600052604160045260246000fd5b80604052508091508251815260208301516020820152604083015160408201525092915050565b805180151581146106c257600080fd5b919050565b600060e082840312156106d957600080fd5b60405160a0810181811067ffffffffffffffff8211171561070a57634e487b7160e01b600052604160045260246000fd5b60405282516001600160a01b038116811461072457600080fd5b815260208381015190820152604083015161073e816105d2565b60408201526107508460608501610648565b606082015261076160c084016106b2565b60808201529392505050565b60006060828403121561077f57600080fd5b610607838361064856fea2646970667358221220a9483587d09d01c07880d30b7c1fe78e9682846ea02c954d7b482cc4a1916d1864736f6c634300081100338271ca78dafdc4ec1467ce386d27760f7fc1832141ce320909354f6f03882563a26469706673582212206a33dc911264010a39e0ddfc52266fb53dba199733bc1f33645ffa50e1893f8164736f6c63430008110033",
  "linkReferences": {},
  "deployedLinkReferences": {}
}