{
  "_format": "hh-sol-artifact-1",
  "contractName": "Receiver",
  "sourceName": "contracts/src/SwitchboardPushReceiver/Receiver/Receiver.sol",
  "abi": [
    {
      "inputs": [
        {
          "internalType": "address",
          "name": "feedId",
          "type": "address"
        }
      ],
      "name": "FeedUninitialized",
      "type": "error"
    },
    {
      "inputs": [],
      "name": "IncorrectInputLength",
      "type": "error"
    },
    {
      "inputs": [
        {
          "internalType": "address",
          "name": "expected",
          "type": "address"
        },
        {
          "internalType": "address",
          "name": "received",
          "type": "address"
        }
      ],
      "name": "InvalidSender",
      "type": "error"
    },
    {
      "inputs": [
        {
          "internalType": "bytes32[]",
          "name": "_feedNames",
          "type": "bytes32[]"
        },
        {
          "internalType": "int256[]",
          "name": "values",
          "type": "int256[]"
        },
        {
          "internalType": "uint256",
          "name": "timestamp",
          "type": "uint256"
        }
      ],
      "name": "callback",
      "outputs": [],
      "stateMutability": "nonpayable",
      "type": "function"
    },
    {
      "inputs": [
        {
          "internalType": "address",
          "name": "feedId",
          "type": "address"
        },
        {
          "internalType": "string",
          "name": "name",
          "type": "string"
        },
        {
          "internalType": "string",
          "name": "description",
          "type": "string"
        }
      ],
      "name": "deployFeedAdapter",
      "outputs": [],
      "stateMutability": "nonpayable",
      "type": "function"
    },
    {
      "inputs": [
        {
          "internalType": "bytes32[]",
          "name": "_feedNames",
          "type": "bytes32[]"
        }
      ],
      "name": "failureCallback",
      "outputs": [],
      "stateMutability": "nonpayable",
      "type": "function"
    },
    {
      "inputs": [],
      "name": "feedNames",
      "outputs": [
        {
          "internalType": "bytes32[]",
          "name": "",
          "type": "bytes32[]"
        }
      ],
      "stateMutability": "view",
      "type": "function"
    },
    {
      "inputs": [
        {
          "internalType": "bytes32",
          "name": "feedName",
          "type": "bytes32"
        }
      ],
      "name": "feeds",
      "outputs": [
        {
          "components": [
            {
              "internalType": "address",
              "name": "feedId",
              "type": "address"
            },
            {
              "internalType": "bytes32",
              "name": "feedName",
              "type": "bytes32"
            },
            {
              "internalType": "uint80",
              "name": "latestIntervalId",
              "type": "uint80"
            },
            {
              "components": [
                {
                  "internalType": "int256",
                  "name": "value",
                  "type": "int256"
                },
                {
                  "internalType": "uint256",
                  "name": "startedAt",
                  "type": "uint256"
                },
                {
                  "internalType": "uint256",
                  "name": "updatedAt",
                  "type": "uint256"
                }
              ],
              "internalType": "struct ReceiverLib.Result",
              "name": "latestResult",
              "type": "tuple"
            },
            {
              "internalType": "bool",
              "name": "historyEnabled",
              "type": "bool"
            },
            {
              "internalType": "bool",
              "name": "latestResultFailed",
              "type": "bool"
            }
          ],
          "internalType": "struct ReceiverLib.Feed",
          "name": "",
          "type": "tuple"
        }
      ],
      "stateMutability": "view",
      "type": "function"
    },
    {
      "inputs": [],
      "name": "getAllFeeds",
      "outputs": [
        {
          "components": [
            {
              "internalType": "address",
              "name": "feedId",
              "type": "address"
            },
            {
              "internalType": "bytes32",
              "name": "feedName",
              "type": "bytes32"
            },
            {
              "internalType": "uint80",
              "name": "latestIntervalId",
              "type": "uint80"
            },
            {
              "components": [
                {
                  "internalType": "int256",
                  "name": "value",
                  "type": "int256"
                },
                {
                  "internalType": "uint256",
                  "name": "startedAt",
                  "type": "uint256"
                },
                {
                  "internalType": "uint256",
                  "name": "updatedAt",
                  "type": "uint256"
                }
              ],
              "internalType": "struct ReceiverLib.Result",
              "name": "latestResult",
              "type": "tuple"
            },
            {
              "internalType": "bool",
              "name": "historyEnabled",
              "type": "bool"
            },
            {
              "internalType": "bool",
              "name": "latestResultFailed",
              "type": "bool"
            }
          ],
          "internalType": "struct ReceiverLib.Feed[]",
          "name": "",
          "type": "tuple[]"
        }
      ],
      "stateMutability": "view",
      "type": "function"
    },
    {
      "inputs": [
        {
          "internalType": "address",
          "name": "feedId",
          "type": "address"
        }
      ],
      "name": "getLatestResult",
      "outputs": [
        {
          "internalType": "int256",
          "name": "value",
          "type": "int256"
        },
        {
          "internalType": "uint256",
          "name": "timestamp",
          "type": "uint256"
        },
        {
          "internalType": "uint256",
          "name": "updatedAt",
          "type": "uint256"
        },
        {
          "internalType": "uint80",
          "name": "intervalId",
          "type": "uint80"
        }
      ],
      "stateMutability": "nonpayable",
      "type": "function"
    },
    {
      "inputs": [
        {
          "internalType": "bytes32",
          "name": "feedName",
          "type": "bytes32"
        },
        {
          "internalType": "uint80",
          "name": "intervalId",
          "type": "uint80"
        }
      ],
      "name": "results",
      "outputs": [
        {
          "components": [
            {
              "internalType": "int256",
              "name": "value",
              "type": "int256"
            },
            {
              "internalType": "uint256",
              "name": "startedAt",
              "type": "uint256"
            },
            {
              "internalType": "uint256",
              "name": "updatedAt",
              "type": "uint256"
            }
          ],
          "internalType": "struct ReceiverLib.Result",
          "name": "",
          "type": "tuple"
        }
      ],
      "stateMutability": "view",
      "type": "function"
    }
  ],
  "bytecode": "0x608060405234801561001057600080fd5b50611fc7806100206000396000f3fe60806040523480156200001157600080fd5b5060043610620000935760003560e01c8063a11523bf1162000062578063a11523bf146200013a578063dcc7c13d1462000151578063e90f1a431462000168578063f7307e7e146200018e57600080fd5b806312876798146200009857806338946d2d14620000ba5780635823156d14620000fb578063a0df776a1462000121575b600080fd5b620000a2620001a7565b604051620000b1919062000ecb565b60405180910390f35b620000d1620000cb36600462000f3b565b620001b8565b604080519485526020850193909352918301526001600160501b03166060820152608001620000b1565b620001126200010c36600462000f60565b62000313565b604051620000b1919062000f9e565b6200013862000132366004620010a4565b620003a4565b005b620001386200014b36600462001173565b6200044d565b62000138620001623660046200122b565b6200048e565b6200017f62000179366004620012a8565b6200058a565b604051620000b19190620012c2565b6200019862000648565b604051620000b19190620012d3565b6060620001b3620006c1565b905090565b6000806000806000620001cb866200085d565b60008181527f26bc2f0c56de428b418c76230cec1f03c4347d809aacb9e7ca4b081f10a9286d60209081526040808320815160c08101835281546001600160a01b0316815260018201548185015260028201546001600160501b039081168285019081528451606080820187526003860154825260048601549782019788526005860154968201968752840181905260069094015460ff8082161515608086015261010090910416151560a08401529251945193519251949b509299509097509195509293509184169003620002c457604051632a3a43f560e11b81526001600160a01b03881660048201526024015b60405180910390fd5b604080518781526020810187905233916001600160a01b038a16917f0e9d66d7dbe705285905a5666005fb8a05857bd743a38f604417afce390f7d4c910160405180910390a350509193509193565b6200033860405180606001604052806000815260200160008152602001600081525090565b60008381527f26bc2f0c56de428b418c76230cec1f03c4347d809aacb9e7ca4b081f10a9286c602090815260408083206001600160501b038616845290915290206040805160608101825282548152600183015460208201526002909201549082015290505b92915050565b6000620003b062000886565b6001600160a01b0316036200040e576200040e620003cd620008b4565b7fec717508ea0d3d9f736b2da60dd18c1864c124710105fae8984f76b69eb3c82780546001600160a01b0319166001600160a01b0392909216919091179055565b62000418620008f5565b81518351146200043b57604051637867cbd560e11b815260040160405180910390fd5b620004488383836200098e565b505050565b60006200045962000886565b6001600160a01b031603620004765762000476620003cd620008b4565b62000480620008f5565b6200048b8162000d3c565b50565b60006200049b846200085d565b90506000620004a962000dbc565b85838686604051620004bb9062000dea565b620004cb95949392919062001355565b604051809103906000f080158015620004e8573d6000803e3d6000fd5b506001600160a01b038616600090815260008051602062001f72833981519152602090815260408083205483527f26bc2f0c56de428b418c76230cec1f03c4347d809aacb9e7ca4b081f10a9286d9091529020600601805460ff19166001179055905060405133906001600160a01b0383169084907f4bf31c1d9894311b78dfa03ee6d61f290cde849712cd75d88874ab7ba2f9727e90600090a45050505050565b6200059462000df8565b5060009081527f26bc2f0c56de428b418c76230cec1f03c4347d809aacb9e7ca4b081f10a9286d6020908152604091829020825160c08101845281546001600160a01b0316815260018201548184015260028201546001600160501b031681850152835160608082018652600384015482526004840154948201949094526005830154948101949094529182019290925260069091015460ff8082161515608084015261010090910416151560a082015290565b60607f26bc2f0c56de428b418c76230cec1f03c4347d809aacb9e7ca4b081f10a9286e805480602002602001604051908101604052809291908181526020018280548015620006b757602002820191906000526020600020905b815481526020019060010190808311620006a2575b5050505050905090565b7f26bc2f0c56de428b418c76230cec1f03c4347d809aacb9e7ca4b081f10a9286e5460609060008051602062001f728339815191529060009067ffffffffffffffff81111562000715576200071562000fc0565b6040519080825280602002602001820160405280156200075257816020015b6200073e62000df8565b815260200190600190039081620007345790505b50905060005b60038301548110156200085657826002016000846003018381548110620007835762000783620013aa565b600091825260208083209091015483528281019390935260409182019020815160c08101835281546001600160a01b0316815260018201548185015260028201546001600160501b03168184015282516060818101855260038401548252600484015495820195909552600583015493810193909352928301919091526006015460ff8082161515608084015261010090910416151560a08201528251839083908110620008355762000835620013aa565b602002602001018190525080806200084d90620013d6565b91505062000758565b5092915050565b6001600160a01b0316600090815260008051602062001f72833981519152602052604090205490565b7fec717508ea0d3d9f736b2da60dd18c1864c124710105fae8984f76b69eb3c827546001600160a01b031690565b3360143610801590620008e15750620008cc62000dbc565b6001600160a01b0316816001600160a01b0316145b15620008f2575060131936013560601c5b90565b33601436108015906200092257506200090d62000dbc565b6001600160a01b0316816001600160a01b0316145b1562000933575060131936013560601c5b6200093d62000886565b6001600160a01b0316816001600160a01b0316146200048b576200096062000886565b60405163708986dd60e11b81526001600160a01b0391821660048201529082166024820152604401620002bb565b7f26bc2f0c56de428b418c76230cec1f03c4347d809aacb9e7ca4b081f10a9286f81905560008051602062001f7283398151915260005b845181101562000d35576000826002016000878481518110620009ec57620009ec620013aa565b6020026020010151815260200190815260200160002090508060060160019054906101000a900460ff161562000a2a5760068101805461ff00191690555b80546001600160a01b031662000b5257600086838151811062000a515762000a51620013aa565b602002602001015190508060405160200162000a6f91815260200190565b60405160208183030381529060405280519060200120905060008160601c905087848151811062000aa45762000aa4620013aa565b6020908102919091010151600184015582546001600160a01b0319166001600160a01b038216178355875188908590811062000ae45762000ae4620013aa565b6020026020010151856000016000836001600160a01b03166001600160a01b03168152602001908152602001600020819055508460030188858151811062000b305762000b30620013aa565b6020908102919091018101518254600181018455600093845291909220015550505b600681015460ff161562000bfd57604051806060016040528086848151811062000b805762000b80620013aa565b602002602001015181526020018581526020014281525083600101600088858151811062000bb25762000bb2620013aa565b602090810291909101810151825281810192909252604090810160009081206002808701546001600160501b0316835290845290829020845181559284015160018401559201519101555b6002810180546001600160501b031690600062000c1a83620013f2565b91906101000a8154816001600160501b0302191690836001600160501b0316021790555050604051806060016040528086848151811062000c5f5762000c5f620013aa565b60209081029190910181015182528181018790524260409283015282516003850155820151600484015501516005820155600281015486516001600160501b039091169087908490811062000cb85762000cb8620013aa565b60200260200101517fae9ac3594cad937b3975db908e86765d93bdc566628fda5872c1ba5f33683c5087858151811062000cf65762000cf6620013aa565b60200260200101518760405162000d17929190918252602082015260400190565b60405180910390a3508062000d2c81620013d6565b915050620009c5565b5050505050565b60008051602062001f7283398151915260005b82518110156200044857600182600201600085848151811062000d765762000d76620013aa565b6020026020010151815260200190815260200160002060060160016101000a81548160ff021916908315150217905550808062000db390620013d6565b91505062000d4f565b7fec717508ea0d3d9f736b2da60dd18c1864c124710105fae8984f76b69eb3c826546001600160a01b031690565b610b56806200141c83390190565b6040518060c0016040528060006001600160a01b031681526020016000801916815260200160006001600160501b0316815260200162000e5260405180606001604052806000815260200160008152602001600081525090565b815260006020820181905260409091015290565b80516001600160a01b03168252602080820151818401526040808301516001600160501b03168185015260608084015180519186019190915291820151608085015281015160a0840152506080810151151560c083015260a00151151560e090910152565b6020808252825182820181905260009190848201906040850190845b8181101562000f125762000efd83855162000e66565b92840192610100929092019160010162000ee7565b50909695505050505050565b80356001600160a01b038116811462000f3657600080fd5b919050565b60006020828403121562000f4e57600080fd5b62000f598262000f1e565b9392505050565b6000806040838503121562000f7457600080fd5b8235915060208301356001600160501b038116811462000f9357600080fd5b809150509250929050565b815181526020808301519082015260408083015190820152606081016200039e565b634e487b7160e01b600052604160045260246000fd5b604051601f8201601f1916810167ffffffffffffffff8111828210171562001002576200100262000fc0565b604052919050565b600067ffffffffffffffff82111562001027576200102762000fc0565b5060051b60200190565b600082601f8301126200104357600080fd5b813560206200105c62001056836200100a565b62000fd6565b82815260059290921b840181019181810190868411156200107c57600080fd5b8286015b8481101562001099578035835291830191830162001080565b509695505050505050565b600080600060608486031215620010ba57600080fd5b833567ffffffffffffffff80821115620010d357600080fd5b620010e18783880162001031565b9450602091508186013581811115620010f957600080fd5b86019050601f810187136200110d57600080fd5b80356200111e62001056826200100a565b81815260059190911b820183019083810190898311156200113e57600080fd5b928401925b828410156200115e5783358252928401929084019062001143565b96999698505050506040949094013593505050565b6000602082840312156200118657600080fd5b813567ffffffffffffffff8111156200119e57600080fd5b620011ac8482850162001031565b949350505050565b600082601f830112620011c657600080fd5b813567ffffffffffffffff811115620011e357620011e362000fc0565b620011f8601f8201601f191660200162000fd6565b8181528460208386010111156200120e57600080fd5b816020850160208301376000918101602001919091529392505050565b6000806000606084860312156200124157600080fd5b6200124c8462000f1e565b9250602084013567ffffffffffffffff808211156200126a57600080fd5b6200127887838801620011b4565b935060408601359150808211156200128f57600080fd5b506200129e86828701620011b4565b9150509250925092565b600060208284031215620012bb57600080fd5b5035919050565b61010081016200039e828462000e66565b6020808252825182820181905260009190848201906040850190845b8181101562000f1257835183529284019291840191600101620012ef565b6000815180845260005b81811015620013355760208185018101518683018201520162001317565b506000602082860101526020601f19601f83011685010191505092915050565b6001600160a01b038681168252851660208201526040810184905260a0606082018190526000906200138a908301856200130d565b82810360808401526200139e81856200130d565b98975050505050505050565b634e487b7160e01b600052603260045260246000fd5b634e487b7160e01b600052601160045260246000fd5b600060018201620013eb57620013eb620013c0565b5060010190565b60006001600160501b03808316818103620014115762001411620013c0565b600101939250505056fe60806040523480156200001157600080fd5b5060405162000b5638038062000b56833981016040819052620000349162000174565b600080546001600160a01b038088166001600160a01b0319928316179092556001805492871692909116919091179055600283905560036200007783826200029d565b5060046200008682826200029d565b50505050505062000369565b80516001600160a01b0381168114620000aa57600080fd5b919050565b634e487b7160e01b600052604160045260246000fd5b600082601f830112620000d757600080fd5b81516001600160401b0380821115620000f457620000f4620000af565b604051601f8301601f19908116603f011681019082821181831017156200011f576200011f620000af565b816040528381526020925086838588010111156200013c57600080fd5b600091505b8382101562000160578582018301518183018401529082019062000141565b600093810190920192909252949350505050565b600080600080600060a086880312156200018d57600080fd5b620001988662000092565b9450620001a86020870162000092565b6040870151606088015191955093506001600160401b0380821115620001cd57600080fd5b620001db89838a01620000c5565b93506080880151915080821115620001f257600080fd5b506200020188828901620000c5565b9150509295509295909350565b600181811c908216806200022357607f821691505b6020821081036200024457634e487b7160e01b600052602260045260246000fd5b50919050565b601f8211156200029857600081815260208120601f850160051c81016020861015620002735750805b601f850160051c820191505b8181101562000294578281556001016200027f565b5050505b505050565b81516001600160401b03811115620002b957620002b9620000af565b620002d181620002ca84546200020e565b846200024a565b602080601f831160018114620003095760008415620002f05750858301515b600019600386901b1c1916600185901b17855562000294565b600085815260208120601f198616915b828110156200033a5788860151825594840194600190910190840162000319565b5085821015620003595787850151600019600388901b60f8161c191681555b5050505050600190811b01905550565b6107dd80620003796000396000f3fe608060405234801561001057600080fd5b50600436106100a95760003560e01c806354fd4d501161007157806354fd4d50146101595780635c47d007146101605780635f9970e6146101735780637284e416146101865780639a6fc8f51461018e578063feaf968c146101a157600080fd5b806306fdde03146100ae578063313ce567146100cc57806335e8568f146100db5780633c528def146100f25780634a6434991461012e575b600080fd5b6100b66101a9565b6040516100c39190610587565b60405180910390f35b604051601281526020016100c3565b6100e460025481565b6040519081526020016100c3565b6100fa610237565b604080516001600160501b03968716815260208101959095528401929092526060830152909116608082015260a0016100c3565b600154610141906001600160a01b031681565b6040516001600160a01b0390911681526020016100c3565b60016100e4565b6100fa61016e3660046105ed565b6102d5565b600054610141906001600160a01b031681565b6100b6610441565b6100fa61019c3660046105ed565b61044e565b6100fa6104b1565b600380546101b690610611565b80601f01602080910402602001604051908101604052809291908181526020018280546101e290610611565b801561022f5780601f106102045761010080835404028352916020019161022f565b820191906000526020600020905b81548152906001019060200180831161021257829003601f168201915b505050505081565b6000805460025460405163e90f1a4360e01b81526004810191909152829182918291829182916001600160a01b03169063e90f1a439060240161010060405180830381865afa15801561028e573d6000803e3d6000fd5b505050506040513d601f19601f820116820180604052508101906102b291906106d5565b606001518051602082015160409092015197989097919650909450879350915050565b6000805460025460405163e90f1a4360e01b81526004810191909152829182918291829182916001600160a01b03169063e90f1a439060240161010060405180830381865afa15801561032c573d6000803e3d6000fd5b505050506040513d601f19601f8201168201806040525081019061035091906106d5565b905061037660405180606001604052806000815260200160008152602001600081525090565b81604001516001600160501b0316886001600160501b03160361039e57506060810151610421565b600054600254604051635823156d60e01b815260048101919091526001600160501b038a1660248201526001600160a01b0390911690635823156d90604401606060405180830381865afa1580156103fa573d6000803e3d6000fd5b505050506040513d601f19601f8201168201806040525081019061041e919061078b565b90505b805160208201516040909201519899909891975090955088945092505050565b600480546101b690610611565b600080600080600061045f866102d5565b93985091965094509250905060008290036104a8576002546040516304e51fed60e21b815260048101919091526001600160501b03861660248201526044015b60405180910390fd5b91939590929450565b6000805460025460405163e90f1a4360e01b815283928392839283926001600160a01b03169163e90f1a43916104ee919060040190815260200190565b61010060405180830381865afa15801561050c573d6000803e3d6000fd5b505050506040513d601f19601f8201168201806040525081019061053091906106d5565b604001519450846001600160501b031660000361056e576002546040516304e51fed60e21b815260048101919091526000602482015260440161049f565b610576610237565b945094509450945094509091929394565b600060208083528351808285015260005b818110156105b457858101830151858201604001528201610598565b506000604082860101526040601f19601f8301168501019250505092915050565b6001600160501b03811681146105ea57600080fd5b50565b6000602082840312156105ff57600080fd5b813561060a816105d5565b9392505050565b600181811c9082168061062557607f821691505b60208210810361064557634e487b7160e01b600052602260045260246000fd5b50919050565b8051610656816105d5565b919050565b60006060828403121561066d57600080fd5b6040516060810181811067ffffffffffffffff8211171561069e57634e487b7160e01b600052604160045260246000fd5b80604052508091508251815260208301516020820152604083015160408201525092915050565b8051801515811461065657600080fd5b600061010082840312156106e857600080fd5b60405160c0810181811067ffffffffffffffff8211171561071957634e487b7160e01b600052604160045260246000fd5b60405282516001600160a01b038116811461073357600080fd5b81526020838101519082015261074b6040840161064b565b604082015261075d846060850161065b565b606082015261076e60c084016106c5565b608082015261077f60e084016106c5565b60a08201529392505050565b60006060828403121561079d57600080fd5b61060a838361065b56fea2646970667358221220ead6fe246fbd2422009d77d644fd752a64a2283d604aea10c8daaf9dc45b3b3764736f6c6343000811003326bc2f0c56de428b418c76230cec1f03c4347d809aacb9e7ca4b081f10a9286ba2646970667358221220dab02430fe4abf53468a94e5757e1ca6875a8a846f3c4853ef26562e72ad7c0e64736f6c63430008110033",
  "linkReferences": {},
  "deployedLinkReferences": {}
}